:200000000C94D8021E282128242827282A282D2830283328372927292529392929293929CE
:20002000392933292B2939293929312939292F292D29352935292D292F29392931293929F8
:2000400039292B2933293929392929293929252927293729E62E032F102F1D2F2A2F2D2F92
:200060003C2F3F2FF138F438FB380239093910391339153919391C392139243929392C399A
:200080002F39323935393B393E394139443947396B396B396B396B396B396B396B396B399D
:2000A0004A394A394D395239553958395B396039653968393031323334353637383941420E
:2000C000434445465B6E6F20636667206170705D415441524920202020202053494F325327
:2000E00044202043464758455841545242494E2000000000213621360000000021360000D2
:20010000000000004E45575F303030304154522E202020202020202020202E2E20202020A5
:20012000202020202001030507090E10121416181C1E4546492050415254A2A0D0EBE5B994
:20014000334487C068B6B72699C72D20454D50545920444952202D2D204F4646202D2D209C
:20016000454D505459202D736561726368696E67202E2E2E2020204D4D4353447631534433
:200180007632534448434D4252475054464154313246415431364641543332206669726D3B
:2001A0007761726520757064617465202020706C65617365207761697420207570646174E0
:2001C000657220746F6F206F6C6420746F2075736520534448432063617264206361726451
:2001E00020492F4F206572726F7220206361726420696E6974206572726F72202063617260
:200200006420746F6F20626967202020756E6B6E6F776E20666F726D61742020206E6F2040
:20022000706172746974696F6E2020206E6F20415441524920666F6C646572206E6F20530A
:20024000442F4D4D43206361726420202063666720746F6F6C206D6F6465202020646973C1
:2002600061626C6564206D6F64652020204B32202D20636F6E6669726D202020206E6F74B8
:2002800020617661696C61626C652053494F32534420766572732E20332E311101010203F1
:2002A00002320A060100020001140573696F20686967682073706565643A006F66660031FB
:2002C000033503746F706472697665206D6F64653A0038034603636667746F6F6C206D6F09
:2002E00064653A005403620371034C4544206D6F64653A006465766963652069643A0080E0
:20030000038603940377726974652070726F746563743A006B6579207265702064656C61CE
:20032000793A006B65792072657020737465703A006F6666006F6E00737461727475702BEE
:200340007368696674006576657279207374617274757000534420726561642F77726974D9
:20036000650053494F20726561642F7772697465005344206163742F53494F2061637400B6
:200380006E65766572006F6265792041545220666C616700616C776179730000038007862C
:2003A00007A04FB980083004C920B004A900F007C960B00338E92091588810E7861F202724
:2003C00008854320270885442543C9FFF0F020270885452027088546A001F017CEBE078433
:2003E00009B9430099E002990A00990C008C44028810EEA92F8DE202A9088DE302D006E6B5
:2004000043D002E644202708A0009143A543C545D0EDA544C546D0E78A48205F0868AA4CC9
:20042000A3076868A0018409B9E002990A00990C008C44028810F16CE002A9288DC8024C14
:200440002408E41FF005BD8008E860AD6C080D6D08F0CFA20BBD62089D0003CA10F72059CB
:20046000E430D7ADFF08851FF0B8ADFE088D6C08ADFD088D6D08A200F0CC6CE202310152F7
:200480004080081F008000040053494F32534420786578206C6F616465720000020050F5EA
:2004A00050AD1702105BA027B9755091588810F8AD1FD0C906F024A005C902F00CA007C9A2
:2004C00001F006C905D0E9A0068C47508C50508C5C508C62508C65508CF150A058B99D5087
:2004E0009900018810F7A94E8502A9018503A9028509AD16028D4C01AD17028D4D01204E3C
:20050000016868AD01C0C951F0034CC3C54CCBC580B3A9AF92B3A480B4B5B2A2AF80003BC4
:200520002F3034292F2E0B3D003334213234006F720033252C25233448A9202C0ED2D00D91
:2005400049FF8D0ED2A5108D0ED26C0A024A2C0ED2D0174A2C03D3D029AD3A02C931D022F5
:20056000AD3D0209808D3D0230184A2410F0132C0ED2D00EA53BF00AAD3D021005A9068D70
:2005800004D2684C0000A9008D1602A9018D170260D002012812100401281AA0050228128E
:2005A000400B025012801602502400000128120011241FBECFE5D8E0DEBFCDBF10E0A0E628
:2005C000B0E0EAEEF5E702C005900D92A036B107D9F717E0A0E6B0E001C01D92AB3AB10769
:2005E000E1F70E94FE2A0C94F33ADC01862F82958F7024EB30E0F901E80FF11DE491EC93D2
:200600006F70260F311DF901849111968C930895FF920F931F938C01F62E672F0E94F50241
:20062000C80102966F2D0E94F5021F910F91FF900895A8E0B0E0EFE1F3E00C946A3A8C011C
:200640007E010894E11CF11CD701CE0109961D92A817B907E1F720E298E0C92ED12CCC0EE1
:20066000DD1EF7018081880F8193EA17FB07D1F777FF03C089818F5F8983F70180818A3020
:2006800028F08A50808381818F5F81833196EC15FD05A1F7215029F0440F551F661F771FA3
:2006A000E0CFDF0197E0222329F4933018F08C91882339F0F801E20FF11D8C91805D808321
:2006C0002F5F91501197913071F7F801E20FF11D8EE28083822F8F5FF801E80FF11D9A81B7
:2006E000905D90838F5F080F111D9981905DF80190838F5F2896E8E00C94863A1EBC1FBC2B
:2007000013BE19BE12BE8BE88CBF8DE083BF089508B601FC02C080E0089583E088BF81E0D2
:2007200008951EBC1FBC1DBC1CBC9BBD8ABD8CE388BF83E08EBD089508B604FEFDCF0895ED
:200740001EBC1DBC1CBC8CE388BF83E08EBD08950E9491030E949C030895809181008823BC
:2007600019F480E090E0089520E080917D0090917E00A0917F00B09180008F5F9F4FAF4F87
:20078000BF4F09F421E081E02827822F089581E08093810008959B01AC012F3F8FEF380749
:2007A0008FEF480780E0580711F482E00895DA01C9018D5F9F4FAF4FB0400297A105B10547
:2007C00018F481E090E0089580E090E0211531054105510511F481E090E00895613071054D
:2007E0008105910549F420916F003091700040917100509172001BC09B01AC0122503040B4
:200800004040504000907B0004C0220F331F441F551F0A94D2F78091730090917400A091EE
:200820007500B0917600280F391F4A1F5B1FB901CA010895FC0180916400628D738D8330E4
:2008400079F484899589A0E0B0E0AC0133272227CB01A0E0B0E0280F391F4A1F5B1F03C08F
:200860009B0140E050E0B901CA010895FC01538F428F80916400833029F4CB01AA27BB27F6
:20088000958B848B0895CF93DF93A82FB0E0FD01EE0FFF1FE556FC4F21812F3FE9F0922F08
:2008A000892F90E0FC0153E0EE0FFF1F5A95E1F7E81BF90BEE57FD4FEF01269696819F3FC5
:2008C00079F780919A03888320939A03AA0FBB1FA556BC4F11969C93DF91CF9108958091B2
:2008E0009A038F3F21F5ABE9B3E090E020E0E0E011968C9111978F3F29F08C91981710F4FD
:20090000E22F01C0892F2F5F1296283011F0982FEFCF882311F42FEF1BC0F0E0EE0FFF1FA5
:20092000E556FC4F818180939A038FEF818320919A03822F90E0FC0173E0EE0FFF1F7A9514
:20094000E1F7E81BF90BEE57FD4F868180939A03822F0895E82F882329F48091B9048823CA
:2009600021F008958F3008F00895F0E0E554FB4F808108951F93182F0E94430421E030E091
:2009800002C0220F331F1A95E2F78091AB049091AC04822B932B9093AC048093AB041F9149
:2009A0000895482F8091AB049091AC0421E030E0042E02C0220F331F0A94E2F72095309519
:2009C000282339233093AC042093AB0402C0969587954A95E2F78170089590E0FC01B4E04B
:2009E000EE0FFF1FBA95E1F7E81BF90BE554FC4FDF011596658111967C91119712968C9198
:200A0000129713969C9108959B01AC0121503E4F4F4F5F4F89E056954795379527958A9550
:200A2000D1F780917C0090E00197AA2797FDA095BA2F280F391F4A1F5B1F00907B0004C095
:200A400056954795379527950A94D2F7B901CA010895982F80916400882369F0892F90E056
:200A6000FC0124E0EE0FFF1F2A95E1F7E81BF90BE554FC4F80810895FC018081882349F0B8
:200A80008E3239F0838584FD02C082E0089581E0089580E008959C01FC01B79601C01082EE
:200AA000E217F30719F082918032C9F30895AC01FC0120E001C02F5F8081882351F031966F
:200AC0002732C9F70895FA01E20FF11D80832F5F01C080E22732B8F30895CF93DF93DC0160
:200AE000AB01EB0120E030E00BC0FD01E20FF31F80839F5F2F5F3F4F21962830310521F00F
:200B0000922F8881803289F7EA0188858032E1F0FD01E90FF11D8EE280839F5FFD01E90FF3
:200B2000F11D888580839F5F8985803269F0FD01E90FF11D80839F5F6A85603229F0FD01E3
:200B4000E90FF11D60839F5FA90FB11D1C92DF91CF910895DC01433021F45A9625E231E0A0
:200B600010C0423011F41D96F9CF413071F4F6CFF90184912F5F3F4FFB01E80FF11D8081EB
:200B80008D93F1E022333F0799F70895FC012BE090E090FB969597F98191980F2150C9F7F4
:200BA000892F0895982F81568A3108F49052892F0895CF92DF92EF92FF921F93CF93DF93EA
:200BC0006C017B01C0E0D0E0F601EC0FFD1F80810E94D205182FF701EC0FFD1F80810E945B
:200BE000D205181711F081E005C02196C732D10559F780E0DF91CF911F91FF90EF90DF9095
:200C0000CF900895A0E0B0E0E8E0F6E00C946A3A8C017A01422F6115710531F4FC01C0E0BF
:200C2000D0E068E270E03CC057E2C52ED12CC60ED71EDC01FB01C0E0D0E068E270E01BC0DE
:200C4000832F80528F3598F43F3289F03C3579F03A3369F03A3259F03F3349F0323239F049
:200C60003C3329F03E3319F03C3709F0319311963E3209F4ED016150704049F0EC15FD05A3
:200C8000A8F43C913323E1F602C0819301C080E2EC15FD05D0F30AC031968E3209F4EF01C1
:200CA0006150704019F080818823B1F7E114F10409F47BC0209731F437E2C32ED12CC00EA3
:200CC000D11E04C06E010894C108D108442331F4B701685F7F4F9801D70115C0B7016A5F14
:200CE0007F4FF9CF892F81568A3108F49052892F81548A3128F08F5E8A3010F09F3509F45E
:200D00009D932F5F3F4F2C153D0538F4A617B70720F4F9019081992329F7FD01442389F084
:200D20008EE78C934A3010F4405D03C0443220F4495C11964C931197FD0132966E5F7F4F83
:200D400007C0AE15BF0521F480E030C0819301C080E2E617F707D0F3AF014D5F5F4F20972A
:200D600001F1B901695D7F4F10C0822F81568A3108F42052822F81548A3128F08F5E8A30B2
:200D800010F02F3509F421932196C617D70748F4E417F50730F42881222339F702C0819381
:200DA00001C080E2E417F507D0F381E0CDB7DEB7E8E00C94863A9C01FC01B696AC01415090
:200DC000504002C010823197E417F50719F080818032C1F38E2F821B8F5F49F08E3010F4BD
:200DE00081E008958B3110F083E0089582E00895FC0180818A3211F030E002C0319631E0D5
:200E0000662319F483E895E005C08091940590E08D579A4FDC0102C02D9331964A2F481BAE
:200E20002081222329F02A32B9F71BC0326031968081882311F080E0089580919605662394
:200E400049F0409395053295307F382B3093960581E0089540939405832B8093960581E08E
:200E60000895442319F7E4CFCF93DF93FC01109294051092950510929605108AEC0101C0DE
:200E800021968881882319F08E32D1F717C08FEF80939505CF0160E00E94F8060CC0CE0109
:200EA000019661E00E94F80690E0882309F491E081E09827892FDF91CF9108951882CF0182
:200EC00060E00E94F806882351F780E090E0F3CFEF92FF920F931F93CF93DF938C01EB01FA
:200EE000E42E12C00E94D205F82E8FE3F81651F0F80180810E94D205F81611F080E00AC002
:200F00000F5F1F4F2196EA94EE2019F08881882349F781E0CDB7DEB7E6E00C94883AEF9292
:200F2000FF920F931F93CF93DF93EC01362F7A01122F013061F0013028F0023089F0033041
:200F400039F515C0621721F5BA01432F0DC06217F8F0862F90E0821B91098C0F9D1F02C02F
:200F60006217B0F0B701412F0E94680712C0621778F0062F021BCE01800F911DB701412FE6
:200F80000E946807813029F0002311F00150F3CF80E0CDB7DEB7E6E00C94883AA0E0B0E08E
:200FA000E4EDF7E00C946A3AAB0190919305982309F45FC0FB0120E030E004C03196273219
:200FC000310529F02F5F3F4F80818823B9F7EF012197C417D50708F44CC088818032C1F374
:200FE0004EC02197C417D50718F088818E32C9F7D09095058FEFD81629F0C417D50778F441
:20100000DD20B9F56E2D641B009196050370CA0143E855E0209194050E948F072BC0C09084
:20102000940510919605CE01841B682F012F0370CA0143E855E02C2D0E948F07882319F4BF
:2010400080E090E017C0CE0101966E2D681B4C2D50E04D575A4F129513702D2D012F0E9419
:201060008F0790E0882309F491E081E09827892F01C080E0CDB7DEB7E8E00C94863A7E0198
:201080000894E11CF11CB1CF83E080939305109294058FEF8093950581E080939605109205
:2010A00097050895FC018091F2049091F304A091F404B091F50480A791A7A2A7B3A78FEFF8
:2010C0009FEF95A784A70895FC018FEF9FEFAFEFB0E080A791A7A2A7B3A715A614A6089533
:2010E000FC01238186E0289F900111242C5F3F4F2E0F3F1FC90108950E947008DC01ECE777
:20110000F5E086E001900D928150E1F708950E947008ACE7B5E0FC0186E001900D92815078
:20112000E1F70895FC019381892F80528F3D98F09F5F938340937C0550937D0560937E0508
:2011400070937F058FEF9FEF9093810580938005CF010E947C080895FC0140E050E098EC57
:201160008191480F58279150D9F7342F20E0250F311DC901089525EAFC01228381E0809365
:201180009705089580939305CB010E943407882311F080E008950E9444088FEF089520E010
:2011A00080915105909152058F5F9F4F09F421E0822F0895FC018091A1049091A204A0917D
:2011C000A304B091A40480839183A283B3830895FC018091980590919905A0919A05B091F5
:2011E0009B0580839183A283B3830895FC0180819181A281B3818093980590939905A09335
:201200009A05B0939B050895809164000895CF93DF93EC01DB01433011F45A9606C0423060
:2012200011F41D9602C0413041F580E2FE0111928A95E9F725E231E00CC0F90194912F5FF9
:201240003F4F8C91FE01E90FF11D8083882381F01196F1E022333F0781F70AC0F90184915B
:201260002F5F3F4FFE01E80FF11D9083918301C09FEFF1E022333F0788F3DF91CF91089584
:201280008FEF9FEFAFEFBFEF80937D0090937E00A0937F00B09380001092810080E092E05B
:2012A000E2E8F0E0DF019C011D9221503040E1F708950F931F938C0160E270E047E250E046
:2012C0000E94D73AC80101966AE471E04DE050E00E94AA3A1F910F9108950F931F938C01AB
:2012E00060E270E047E250E00E94D73AC801019667E571E047E050E00E94AA3A1F910F9126
:2013000008950F931F938C0160E270E047E250E00E94D73AC80101966EE571E049E050E054
:201320000E94AA3A1F910F91089580916400882309F18091B5049091B604A091B704B0914E
:20134000B8040097A105B105A9F08D5F9F4FAF4FB04081F00E944F2BE4E5F8E7E491E335BB
:2013600011F491E008C090E0833009F491E081E0982701C090E0892F0895DC01EBEBF4E071
:201380008FE001900D928150E1F708951F938FEF9FEFAFEFBFEF80937D0090937E00A093FA
:2013A0007F00B093800010928100109264001092B90480EFEBEBF3E0DF011D928A95E9F7BD
:2013C0008FEF9FE79093AC048093AB0410E0812F0E9499361F5F1F30D1F78BEC94E00E9441
:2013E0006D0980E00E94B42F1F9108950E94C60908950F931F9380916400882339F5809184
:20140000B9048330B9F0843028F4813069F0823070F407C08530A1F0853078F08630C1F52D
:2014200012C00E94772734C00E945E2731C00E946D272EC00E9468272BC00E94632728C03A
:201440000E94722725C00E94592722C08091AA078823F1F410911D050091CA040F3018F0AD
:20146000E0E0F0E009C0802F0E94AA04E0E0F0E0801711F0E1E0F0E040E0113009F441E0DC
:20148000802F6BEC74E026EF34E00E2F0E94C9251F910F91089580916400882319F40E9440
:2014A000772708950E94F90908950E94C60986E08093B9040E94F9090895A0E0B0E0E3E6EF
:2014C000FAE00C946B3A7B018C0181E00E945F2AC1E0D0E00BC081E00E944D2ACE01837000
:2014E0009070039711F40E945F2D2196CE018150D82EC801B7010E941F2D882319F4CB30A0
:20150000D10549F780E00E945F2A9AE0D91619F40E94550A03C080E00E944D2ACDB7DEB75E
:20152000E7E00C94873ADF92EF92FF920F931F93D0907C000E94EE037B018C010AC0C801A1
:20154000B7010E945D0A0894E11CF11C011D111DDA94DD20A1F71F910F91FF90EF90DF9008
:2015600008951F93CF93DF9381E00E945F2AC1E0D0E00BC081E00E944D2ACE018370907064
:20158000039711F40E945F2D2196CE018150182F60917D0070917E0080917F0090918000C2
:2015A00042E850E00E94DB2C882319F4CB30D10509F780E00E945F2A1A3019F40E94550ABC
:2015C00003C080E00E944D2ADF91CF911F9108950E94AD03882321F00E94B10A1092810024
:2015E0000895A0E0B0E0E7EFFAE00C946B3A7B018C0180917D0090917E00A0917F00B09122
:201600008000E816F9060A071B07B9F10E94E80A81E00E94532AC1E0D0E00BC081E00E943D
:201620004D2ACE0183709070039711F40E945F2D2196CE018150D82EC801B70142E850E06C
:201640000E949F2C882319F4CB30D10539F780E00E94532A9AE0D91619F40E94550A0DC0A1
:2016600080E00E944D2AE0927D00F0927E0000937F001093800010928100CDB7DEB7E7E0CA
:201680000C94873A2F923F924F925F927F928F929F92AF92BF92CF92DF92EF92FF920F930A
:2016A0001F931B012C0169017A01CA01B9010E94930AC701B6010E94EE030E94F10A02E8ED
:2016C00010E0C8016FE071E04BE050E00E94AA3AE0E17E2E70928D0070EFA72E70E0B72E6B
:2016E000C8010C96B50144E150E00E94AA3A60E2862E912C800E911EC4016AE171E04BE072
:2017000050E00E94AA3A7092AD00C8018C96B50144E150E00E94AA3AC801B701A6010E941E
:201720003604C401B201A1010E9436040E94C7031F910F91FF90EF90DF90CF90BF90AF9053
:201740009F908F907F905F904F903F902F9008950E94EE030E94F10A82EA90E06AE171E08B
:201760004BE050E00E94B33A892B49F06091AD047091AE048091AF049091B004089582EA9B
:2017800090E00E941A0408950F931F938C01FC0160817181828193810E94EE039B01AC01D8
:2017A000F80164817581A4E076956795AA95E1F780E090E0620F731F841F951F0E94F10AEC
:2017C000F801248135812F703070F5E0220F331FFA95E1F72E573F4FC9011F910F910895ED
:2017E000EF92FF920F931F937A018B010E94C40BFC01E48EF58E068F178F0E94C7031F91C2
:201800000F91FF90EF9008950E94C40BFC01648D758D868D978D08950E94C40BFC018385D2
:2018200084FD02C082E0089581E00895EF92FF920F931F939C017A018B0142305105610530
:20184000710570F08091770090917800A0917900B0917A0084179507A607B70778F005C05D
:20186000411551056105710549F4C9010E94C40BB801A7010E9436040E94C7031F910F916F
:20188000FF90EF9008950E94C40B0E941A0408952F923F924F925F926F927F928F929F9207
:2018A000AF92BF92CF92DF92FF920F931F93DF93CF9300D000D0CDB7DEB74C011B01F42EC7
:2018C00040907D0050907E0060907F00709080008C01085D1F4FC8010E94430C69837A836B
:2018E0008B839C83C8010E94040C5B016C01FF2021F0C301B2010E94F10AD40197968C9114
:20190000F101808389819A81AB81BC8181839283A383B483D1011596AD92BD92CD92DC92F6
:2019200018971996F401B89686E001900D928150E1F72496DEBFCDBFCF91DF911F910F91C4
:20194000FF90DF90CF90BF90AF909F908F907F906F905F904F903F902F900895EF92FF9235
:201960000F931F93F82EE92E8B01695D7F4F0E94480CD8012F2D3E2DC901FC0187E201905F
:201980000D928150E1F71F910F91FF90EF900895A6E0B0E0EEECFCE00C94603A2B013C0195
:2019A00049015A01623071058105910508F47DC18091770090917800A0917900B0917A009E
:2019C00084159505A605B70508F46FC142E084169104A104B10430F088159905AA05BB05CC
:2019E00038F010C081149104A104B10459F05DC15FEF85165FEF95065FEFA50650E0B5064E
:201A000009F053C180916400823009F4C5C0833009F4F9C0813009F048C1920136952795DA
:201A2000240D351DC901892F99278695AC0160E070E08091670090916800A0916900B091AD
:201A40006A00480F591F6A1F7B1F49835A836B837C83FFEF2F2EF1E03F2E22223322CB01A6
:201A6000BA010E94F10AB1016E577F4F7E836D83E1E0CE2ED12CC420D520C114D10449F062
:201A8000DB018C918F70982D9295907F892B8C9303C0ED81FE818082FFEF2F16F1E03F0685
:201AA00079F40E94C70369817A818B819C816F5F7F4F8F4F9F4F0E94F10AE2E8F0E003C0DD
:201AC000ED81FE813196C114D10459F0D501C40164E0B695A795979587956A95D1F78083E7
:201AE00009C02081207FBB27AB2D9A2D892D8F70282B20830E94C703E0906B00F0906C007E
:201B000000916D0010916E0049815A816B817C81E40EF51E061F171FC801B7010E94F10AAC
:201B2000C114D10451F0AD81BE818C918F70982D9295907F892B8C9303C0ED81FE818082B1
:201B4000FFEF2F16F1E03F0671F40E94C7030894E11CF11C011D111DC801B7010E94F10A5B
:201B6000E2E8F0E003C0ED81FE813196C114D10449F044E0B694A794979487944A95D1F7DB
:201B8000808291C02081207FBB27AB2D9A2D892D8F70282B208387C06201E52CFF2400E0C8
:201BA00010E08091670090916800A0916900B0916A00E80EF91E0A1F1B1FC801B7010E945C
:201BC000F10A2FEFC222DD24CC0CDD1C42E850E0C40ED51ED6018D929C920E94C703809176
:201BE0006B0090916C00A0916D00B0916E00E80EF91E0A1F1B1FC801B7010E94F10AF6011B
:201C00009182808250C07301620107E0F694E794D794C7940A95D1F78091670090916800AE
:201C2000A0916900B0916A00C80ED91EEA1EFB1EC701B6010E94F10AFFEF8F16FFEF9F062F
:201C4000FFEFAF06F0E0BF0641F41FEF812E1FEF912E1FEFA12E1FE0B12E82010F77107049
:201C6000000F111F000F111F0E571F4FD8018D929D92AD92BC9213970E94C70380916B00CD
:201C800090916C00A0916D00B0916E00C80ED91EEA1EFB1EC701B6010E94F10AF801808265
:201CA0009182A282B3820E94C7032696E2E10C947C3A2FEF3FEF4FEF50E00E94C80C0895AA
:201CC0007F928F929F92AF92BF92CF92DF92EF92FF920F931F934B015C0182E08816910499
:201CE000A104B10408F4E8C08091770090917800A0917900B0917A0088159905AA05BB05B6
:201D000008F4DAC080916400823009F460C0833009F48FC0813009F0CFC0840116950795E5
:201D2000080D191DC801892F992786956C01EE24FF248091670090916800A0916900B0917E
:201D40006A00C80ED91EEA1EFB1E1170C701B6010E94F10AF801EE57FF4F70800F5F114053
:201D600061F40894C11CD11CE11CF11CC701B6010E94F10AA2E8B0E002C0DF011196C4015A
:201D8000817090700C91892B59F0602F70E044E0660F771F4A95E1F772943FE0732206C073
:201DA000802F90E08F709070782F6627670D711DEFE0683F7E0708F07FC0FFE0673F7F0792
:201DC00009F47FC08FE0603F780758F17FC08401692D772780E090E02091670030916800E8
:201DE0004091690050916A00620F731F841F951F0E94F10A1070000F111F0E571F4FF801DC
:201E000060817181FFEF683F7F0708F055C08FEF673F780709F455C0EFEF603F7E0708F018
:201E200055C06130710509F451C09B0140E050E051C0C501B40107E09695879577956795CA
:201E40000A95D1F720916700309168004091690050916A00620F731F841F951F0E94F10A5E
:201E6000F401EF77F070EE0FFF1FEE0FFF1FEE57FF4F20813181428153815F70283FFFEFD0
:201E80003F07FFEF4F07FFE05F07B0F4273F8FEF38078FEF48078FE0580799F0213FEFEF4A
:201EA0003E07EFEF4E07EFE05E0780F4213031054105510579F40AC02FEF3FEF4FEF50E0EE
:201EC00009C02EEF3FEF4FEF50E004C02DEF3FEF4FEF50E0B901CA011F910F91FF90EF9021
:201EE000DF90CF90BF90AF909F908F907F900895A3E0B0E0EEE7FFE00C94603A0E9495094B
:201F0000882309F490C00E944F2B89830E94B029A090B504B090B604C090B704D090B8041C
:201F200088E090E09B838A834424212C7CE3372EC601B5010E94EE033B014C01552463C0F0
:201F40008A819B81662D0E94E63A8A819B810196672D0E94E63A8A819B810296682D0E94FB
:201F6000E63A8A819B810396692D0E94E63A7301840143949EE1491619F40E94B72936C0F6
:201F8000ECE34E1699F50E94B72980E090E063E50E94E63A81E090E069E40E94E63A82E0E2
:201FA00090E06FE40E94E63A83E090E062E30E94E63A84E090E063E50E94E63A85E090E00F
:201FC00064E40E94E63A86E090E066E40E94E63A87E090E067E50E94E63A88EF90E069815F
:201FE0000E94E63AE199FECFF10109958A819B8104969B838A83D801C7010196A11DB11D98
:202000003C014D01539480917C00581608F498CFC601B5010E94600E5B016C010E94CB032A
:20202000882309F485CF2396E2E10C947C3AAF92BF92CF92DF92EF92FF920F931F935B01AC
:202040006C0114C0B501C6010E94600E162F072FF82EE92EB501C60120E030E040E050E01D
:202060000E94C80CA12EB02ECF2CDE2CB501C6010E94CB03882331F31F910F91FF90EF901E
:20208000DF90CF90BF90AF900895A0E0B0E0EBE4F0E10C94603A1B01082F10E0D801AA0F88
:2020A000BB1FA556BC4F8C918823A1F0EBE9F3E090818C91981710F49F5F9083329683E023
:2020C000EB3BF807A9F7B097C801880F991FE80FF91F1082F0907B00E801CC0FDD1FC55665
:2020E000DC4F7980EFEF7E1641F50E946F04782E898390E09C0163E0220F331F6A95E1F7A3
:20210000281B390B2E573D4FF80154E0EE0FFF1F5A95E1F7E01BF10BE554FC4F8181928188
:20212000A381B481F90180839183A283B38381E090E0958384838FEF8683B10102C07695E4
:202140006795FA94E2F703C0641B750B782E272D30E0F90143E0EE0FFF1F4A95E1F7E21B64
:20216000F30BEE57FD4F86818F3F29F0448155816417750748F7F90193E0EE0FFF1F9A955A
:20218000E1F7E21BF30BEE57FD4F8481958120813181428153816817790740F47B0100E047
:2021A00010E0E20EF31E041F151F69C04B01881A990A0894811C911C79018A010894E108AD
:2021C000F10801091109A0E0B0E0E80EF91E0A1F1B1F66246A9481E0482E512C4CC0C801B1
:2021E000B7010E94600E5B016C010894E11CF11C011D111DC72DD0E06E157F058007910792
:2022000081F4FE0113E0EE0FFF1F1A95E1F7EC1BFD0BEE57FD4F8481958101969583848344
:2022200010C00E946F04282FFE01B3E0EE0FFF1FBA95E1F7EC1BFD0BEE57FD4F86838F3F17
:2022400011F4272D12C090E0FC01A3E0EE0FFF1FAA95E1F7E81BF90BEE57FD4F66825582DA
:202260004482A082B182C282D38208948108910886017501722E8114910409F0B0CFC801E4
:20228000B7010E94EE0320917C0030E0215030402221332140E050E0260F371F481F591F84
:2022A000B901CA01CDB7DEB7E2E10C947C3AEF92FF920F931F937B018C010EC0C801B701A9
:2022C0000E94600E6115710581059105C9F00894E11CF11C011D111D80917700909178001A
:2022E000A0917900B0917A008E159F05A007B10728F79DEFE92E9FEFF92E9FEF092F112D58
:20230000B701C8011F910F91FF90EF900895A0E0B0E0EDE8F1E10C946A3AEC016B018C81E0
:202320009D812FEF8F3F920719F41D821C826BC09C012F5F3F4F3D832C83488159816A81CF
:202340007B81413051056105710549F480916500909166002817390708F455C059C08091EA
:202360007C0090E0E4E0880F991FEA95E1F72817390708F448C01D821C82CB01BA010E941E
:20238000600E7B018C01688379838A839B830E94CB038130E9F18230B1F5C114D104C1F105
:2023A000C801B7010E9457117B018C018DEFE8168FEFF8068FEF080780E0180781F462E0D0
:2023C00070E080E090E00E9457117B018C016D3F2FEF72072FEF820720E09207C9F06881A5
:2023E00079818A819B81A80197010E94C80CC801B7010E94590EC801B7010E94930AE88251
:20240000F9820A831B83CE010E94C40B9C0102C020E030E0C901CDB7DEB7E8E00C94863A5C
:20242000A6E0B0E0E6E1F2E10C94603A1B012C015A8349832B833C83702E6E2C80916400A6
:20244000882309F4CFC020927C0530927D0540927E0550927F058FEF9FEF9093810580934B
:2024600080051E821D82882499245401CC2400E010E002C010E073C017FF71C00715D8F406
:20248000D72CD01A8D819E8169817A814D2D0E9407098FE0ED81FE818387C586002311F438
:2024A00080E401C080E08D29ED81FE8180830F5F0E94C70354C0F1E06F1621F0EE24FF2467
:2024C00087011BC062E070E080E090E00E9457117B018C018DEFE8168FEFF8068FEF0807A1
:2024E00080E0180711F48FEF7EC0C801B7010E94590E8CE795E00E94C40BAD81BE818B8140
:202500009C819C01F9018BE001900D928150E1F78D819E810B966FEE70E045E150E00E9450
:20252000AA3A60FE04C080E1ED81FE818387F1E06F1679F48D819E81B801A7010E94360410
:202540000E94C703C201B101A80197010E94420B02C00E94C70360927B0581E044C08CE7F2
:2025600095E061E070E00E9487119E838D8317FD83CFFC018081882319F0853E09F07ACFCD
:20258000112361F480907C0590907D05A0907E05B0907F05C090810500918005171501F5FA
:2025A00080927C0590927D05A0927E05B0927F05FC2CEE24802F90E08E299F2990938105E8
:2025C000809380058CE795E00E94C40B9E838D838B819C810E94C605C82E00E010E84ECF58
:2025E0001F5F4ACF80E02696E2E10C947C3AA6E0B0E0EDEFF2E10C94663A7B018C015A01A6
:20260000C22E80916400882309F480C0E0927C05F0927D0500937E0510937F058FEF9FEF2D
:202620009093810580938005EE24DD24FF244E010894811C911C04C08E2D3D2DE82ED32EEE
:202640008CE795E060E070E00E9487118C01009709F459C0FC013081332309F454C0DA940B
:2026600083858F30D1F436FF0CC085853F73D401ECE7F5E026E001900D922150E1F7F32EF4
:20268000DDCF3D1519F08E2D3D2D05C0F80185858E15A1F28E2DFF24D1CF84FDCDCF8CE702
:2026A00095E0B50146E050E00E94C13A009721F685EEF80180830E94C703CC2029F0C801A5
:2026C0000E941A040E941710FF20F9F0DD20E9F48E010F5F1F4FC8010E94C40BFC01A5EE5A
:2026E000DA2EE02E012F309781F0D0820E94C703FA948E2D902F60E070E00E948711FC01CF
:20270000FF2089F702C08FEF01C081E02696ECE00C94823AA0E0B0E0E0E9F3E10C94683AE5
:202720008C0180916400882309F472C0F801108217A288E2A82EB12CA00EB11E6801FF2453
:20274000EE24C50160E070E00E948711EC01009719F08881882349F4F80110A611A612A63B
:2027600013A615A614A680E053C09B859F3051F5482F4F7386FF0FC0ED84413029F4F801FE
:202780001586FF24F39419C04230B1F4F801128EB2E0FB2E12C08F2D90E00197242F30E0B7
:2027A0008217930719F48D85E81631F0F8011082FF24EE244FEF01C0F42EC601BE010E949F
:2027C000AA0520C0853EF1F0892F90E084FD04C08E719070892BB1F4F1E0FF1629F4CE012F
:2027E0000E94C6058E1521F0C601BE010E946D05CE010E943C05F80187A3882319F0C601CE
:202800000E945705F80187A1882309F49ACF81E0CDB7DEB7EAE00C94843ACF93DF9385E2AB
:2028200095E00E945208C0E0D0E008C080914C0565E275E00E94CE078111219685E295E075
:202840000E948A13882391F785E295E00E945208CE01DF91CF910895EF92FF920F931F938C
:20286000CF93DF93EC017A018B0186E3FE0111928A95E9F7411551056105710509F45AC0E7
:202880008091AD049091AE04A091AF04B091B004481759076A077B07A9F1CB01BA010E9455
:2028A000A80B60937C0570937D0580937E0590937F058FEF9FEF909381058093800509C019
:2028C0008CE795E00E94430CE616F7060807190739F084E595E00E948A13882389F72AC09C
:2028E000DE01E4E5F5E087E201900D928150E1F7DE01D096ECE7F5E086E001900D928150C5
:20290000E1F711C0CE0160ED70E04BE050E00E94AA3A9E01255F3F4FC90160E270E04CE187
:2029200050E00E94D73A81E08FA3E8A6F9A60AA71BA701C08FEFCDB7DEB7E6E00C94883A01
:20294000FC0140A951A962A973A90E942C1408954091F2045091F3046091F4047091F5046F
:202960000E942C140895A0E0B0E0E9EBF4E10C946A3AD82EC92EEB01E82FF92F86E3DF016A
:202980001D928A95E9F780919705882309F489C083E895E0609194054091950520919605CA
:2029A0000E94BB2893E0E92EF12CEC0EFD1E8B81813270F49E012E5F3F4F8A818A3541F4FA
:2029C00008811981C9010E94AC080817190769F08FEF8B838AE58A834091AD045091AE04FF
:2029E0006091AF047091B00458C0CE010E9487080E944C30882341F08FEF8B8310929705A2
:202A00000E94F90980E04EC084E595E00E948A13882379F4F7018081882339F48FEF8B8312
:202A2000109297050E94F9093CC08150D7018C93DCCF80917B0564E575E00E94CE078823F4
:202A4000F1F0CE010E947C0884E595E06D2D7C2D40E00E94AE0C80917B05813049F48CE711
:202A600095E00E94430CAB01BC01CE010E949208CE0102960E94AC089983888312C08091B5
:202A80007B05813009F0B4CFCE010E947C088CE795E00E94430CAB01BC01CE010E94920847
:202AA000A7CF81E0CDB7DEB7E8E00C94863ACF93DF93EC010E945208CE010E948A13882388
:202AC00031F481E08EA7CE010E94590901C01EA6DF91CF9108956093F2047093F304809380
:202AE000F4049093F50486EF94E00E94571585E295E00E9452080E94440882E00E94B42F1E
:202B00000895809164008823D9F02091F2043091F3044091F4045091F5048091AD0490914A
:202B2000AE04A091AF04B091B004281739074A075B0731F0CA01B9010E94A80B0E946B15BB
:202B40000895882359F06091AD047091AE048091AF049091B0040E946B1508950E948115FF
:202B6000089580916400882371F080912405882351F486EF94E00E948A13882321F486EFB0
:202B800094E00E9457150895CF93DF93EA0160937C0570937D0580937E0590937F0510927F
:202BA00081051092800516C080918005909181058F70907025E0880F991F2A95E1F78E5786
:202BC0009F4FBE014BE050E00E94C13A009711F481E006C084E595E00E948A13882321F7AD
:202BE000DF91CF910895CF93DF93EA0160937C0570937D0580937E0590937F05109281054B
:202C000010928005CA010E94570509C0CE0164E575E00E94D905882311F481E006C084E5CE
:202C200095E00E948A13882389F7DF91CF910895A0E0B0E0EEE1F6E10C946A3AEC01162F1C
:202C400047E2C42ED12CC80ED91E8FA19CA5892B61F5CE01BE0140E050E020E00E9402068C
:202C6000F60181819281A381B4810097A105B10561F48091F2049091F304A091F404B0911E
:202C8000F50481839283A383B483F6016181728183819481AE010E94F315882371F184E511
:202CA00095E0BE0140E00E94AE0C8FA1812329F130E3C32ED12CCC0EDD1EE8A4F9A40AA5C8
:202CC0001BA5C6010E94430CE616F70608071907A1F4ECA4FDA40EA51FA5C6010E94040C9E
:202CE000E616F7060807190741F41FA1C6010E940C0C181711F481E001C08FEFCDB7DEB749
:202D0000E8E00C94863ACF93DF93EC0162E00E941816882311F08FEF15C0ACE9B4E0FE0191
:202D2000B7968FE001900D928150E1F78FE00E94BA04109298051092990510929A051092CD
:202D40009B0581E0DF91CF910895CF93DF93EC0162E00E94181687FF02C08FEF10C082E03A
:202D60000E94B42F6091F2047091F3048091F4049091F504E096AE0121E00E94F712DF918B
:202D8000CF910895A0E0B0E0E8ECF6E10C94643A5B016C01842E922E3801E70157E2E52E95
:202DA000F12CEC0EFD1EC801BE01A70120E00E940206182F8FA18032D9F1C601B501AE01E8
:202DC0000E94F315813019F49920A1F531C082E0981671F1112311F411E008C0C601B5016A
:202DE000A7010E94C415813099F4F6CFC30160E070E0A701212F0E940206C601B501A70192
:202E00000E94C415882321F01F5F143279F710C0882081F0CE010E94DB06082F882341F0F9
:202E2000C601B501AE019701E82C0E94101203C08FEF01C081E0CDB7DEB7EEE00C94803A52
:202E4000EF92FF920F931F93CF93DF93EC01162F0E944B0510FF09C06091F2047091F3045D
:202E60008091F4049091F50408C06091AD047091AE048091AF049091B004169511701F5FCF
:202E800042E0212F8E01A7967E010E94C21687FD18C080917B058230A1F484E595E06CE994
:202EA00074E040E00E94480C8FE00E94BA04109298051092990510929A0510929B0581E076
:202EC00001C08FEFCDB7DEB7E6E00C94883AA0E0B0E0EDE6F7E10C94683AEC0163E00E94A3
:202EE000181687FD51C0CE010E944B0576E3A72EB12CAC0EBD1E6091F2047091F3048091BE
:202F0000F4049091F50440E020E08E0175010E94C21687FD39C067E2C62ED12CCC0EDD1E74
:202F20006091F2047091F3048091F4049091F504AE01405D5F4F20E00E94F71287FD24C082
:202F40006091F2047091F3048091F4049091F5044FA1405820E00E94C216F60141815281E1
:202F6000638174818CE795E00E94160CF60145815681678170858CE795E00E94F00B82E074
:202F80000E94B42F81E001C08FEFCDB7DEB7EAE00C94843AEF92FF920F931F93CF93DF9391
:202FA000EC01162F862F8150823010F080E015C082E00E94B42FCE010E944B056091F204E3
:202FC0007091F3048091F4049091F504412F20E08E01A7967E010E94C216CDB7DEB7E6E0C2
:202FE0000C94883AAF92BF92CF92DF92EF92FF920F931F937B018C0159016A0162177307E4
:203000008407950799F42FEF3FEF4FEF50E018C0C801B7010E94600E6A157B058C059D05A7
:2030200019F4A80197010CC07B018C01C801B7010E94CB03882361F32DEF3FEF4FEF50E0C5
:20304000B901CA011F910F91FF90EF90DF90CF90BF90AF9008954F925F927F928F929F925F
:20306000AF92BF92CF92DF92EF92FF920F931F93DF93CF93CDB7DEB72697DEBFCDBF7C0136
:2030800080916400882309F4ABC0DE011196F701B89686E001900D928150E1F7F701108213
:2030A00017A2BE2CAF2CDD2477242E010894411C511CA8E28A2E912C8E0C9F1C8D819E81E0
:2030C000009721F001979E838D8327C080917C0090E0F4E0880F991FFA95E1F701979E8358
:2030E0008D836091F2047091F3048091F4049091F50429813A814B815C810E94F217698319
:203100007A838B839C830E94CB03882331F0F70187A1882309F464C05DC0C2010E94C40B0C
:203120008C01FC012081253E41F1838590E084FD04C08E719070892B01F5F70187A188239E
:2031400009F048C0C8010E943C05F70187A3882309F4B4CFC8010E94C605782E8B2D9A2D1A
:20316000B8010E946D05D401F20186E001900D928150E1F7DD24D394A1CFF80183858F30E3
:2031800009F09CCFF70187A1882309F497CFEFE3CE2EC222DC14F1F4F80185857816D1F4C0
:2031A0008B2D9A2DB8014D2D0E94AA05F1E0DF1619F4F701158605C0F2E0DF1611F4F7011D
:2031C000128EF801808186FD05C0F3E0CF1611F0D39474CF8B2D9A2D0E94570581E001C00B
:2031E00080E02696DEBFCDBFCF91DF911F910F91FF90EF90DF90CF90BF90AF909F908F90B2
:203200007F905F904F9008950F931F93182F092FE82FF92F86E3DF011D928A95E9F780911A
:203220005305882311F08FEF43C0862F90E09C012170307061FF1AC0232B21F085E295E0A1
:203240000E94640885E295E00E942B18882329F485E295E00E94640819C080914C0565E26B
:2032600075E00E94CE07882369F31AC0232B21F085E295E00E94520885E295E00E948A134F
:20328000882331F485E295E00E94520880E010C080914C0565E275E00E94CE07882361F3E2
:2032A00085E295E0612F702F40E00E94AE0C81E01F910F910895CF93DF93EC010E9464086A
:2032C000CE010E942B18882331F481E08EA7CE010E94590901C01EA6DF91CF9108958091FE
:2032E0006400882371F080912405882351F486EF94E00E942B18882321F486EF94E00E941B
:203300005B190895EF92FF920F931F937B018C010E94600E0E94CB03813031F1C801B70159
:203320000E94EE030E94F10A82E890E06FE071E04BE050E00E94B33A892BB1F482EA90E0C4
:203340006AE171E04BE050E00E94B33A892B61F482E890E00E941A0420E0E616F70608073C
:20336000190719F421E001C020E0822F1F910F91FF90EF900895EF92FF920F931F93CF93EA
:20338000DF93EC0161E00E94181687FD10C0E8A4F9A40AA51BA5C801B7010E948219882368
:2033A00031F0C801B7010E946B1581E001C08FEFCDB7DEB7E6E00C94883ADF92EF92FF92E5
:2033C0000F931F937B018C01D42EC801B7010E94CB03882319F00E94400919C080917C0098
:2033E000D81658F4C801B7010E94EE036D0D711D811D911D0E94F10A0AC0C801B7010E94A1
:20340000600E7B018C0180917C00D81ADECF1F910F91FF90EF90DF900895482F6091B10482
:203420007091B2048091B3049091B4040E94DD190895EF92FF920F931F93CF93DF9380E065
:203440000E940D1AE2E8F0E080E092E0DF019C011D9221503040E1F710E000E0C0E4D0E02E
:203460007F01CE018E579F4F0E946D09C05CDF4F1F5F32E0C030D30781F4143781F00E949B
:20348000C7030F5F802F0E940D1AD701FE011D923197E9F7C0E0D0E0E4CF143711F70E9456
:2034A000C703CDB7DEB7E6E00C94883A80E00E940D1A85EA80938200A3E8B0E0EBEBF4E00F
:2034C0008FE001900D928150E1F78091BA04809392000E94C70308950F931F93082F0F5F2E
:2034E000802F8695869586950E940D1A10E007701070B6E0000F111FBA95E1F70E571F4F4D
:20350000C8011F910F910895833718F02BEC34E003C00E946C1A9C01C90108950F931F93C5
:20352000182F092F633770F4862F0E94841A412F502F9A01D901FC0186E301900D9281504E
:20354000E1F707C0E82FF92F86E3DF011D928A95E9F71F910F910895982F8091CA04981754
:2035600019F42BEC34E006C0892F0E94AA040E94841A9C01C90108958091CA040E94AA04D2
:203580000E94841AABECB4E0FC0187E201900D928150E1F70895809164008823C1F0409142
:2035A000CA04442349F0242F30E08091BA0490E001968217930734F48091BA048F5F809339
:2035C000CA0403C041504093CA040E94BC1A089580916400882389F02091CA042F5F2093BA
:2035E000CA0430E08091BA0490E001968217930714F41092CA040E94BC1A08950E946C1A2F
:2036000020E0FC0187A1882309F421E0822F08950F931F931FE00EE0812F0E94FE1A882338
:2036200009F4012F1F5F1237B9F78091BA04081721F00093BA040E94561A1F910F91089597
:203640001F93CF93DF93162F8337D0F40E946C1AEC01112319F00E94810902C00E946D09C9
:20366000CE018796FC018FE0DF011D928A95E9F7112311F083E08FA30E94C7030E94081B69
:20368000DF91CF911F910895A0E0B0E0EAE4FBE10C94693AB82E8FE0B89EE0011124C55436
:2036A000DC4FE880EE20D9F189819A81AB81BC810097A105B10599F18D819E81AF81B885FA
:2036C0000097A105B10559F189E0C82ED12CCC0EDD1EC6010E940C0CE816C1F4E980FA8065
:2036E0000B811C81C6010E94430CE616F7060807190761F4ED80FE800F811885C6010E94EB
:20370000040CE616F7060807190749F08B2D60E00E94201B8FE0FE0111928A95E9F7CDB7CF
:20372000DEB7E9E00C94853A1F93182F0E94AA040E946C1A2FE0129FF0011124E554FC4FF1
:20374000DC0197968FE00D9001928150E1F7812F0E94441B1F9108951F93CF93DF93909172
:20376000CA04809164008823B1F19F30A0F5992339F48091B904882319F01092B9041BC0B0
:20378000C92FD0E0C554DB4F88818F3010F41FE002C0182F1F5F8091BA04811728F0812FBD
:2037A0000E94FE1A8823B1F78091BA04811710F41091CA0418838091CA040E94941B1091B6
:2037C000CA04812F0E94BA04812F0E9499360E94BC1A0E94561ADF91CF911F910895FF92B2
:2037E0000F931F93F82E10E000E0812F0E94AA048F1581F4812F0E94941B812F0E94BA0455
:20380000812F0E9499368091CA04181719F40E94BC1A01E01F5F1F3041F7002331F48091B5
:20382000CA04F81621F40E94BC1A0E94F9091F910F91FF90089580916400882331F010921C
:20384000B9048091BB040E94EF1B089580916400882329F082E78093B9040E94EF1B0895D7
:203860001F93182F823740F460E00E94201B812F0E94EF1B0E94F9091F9108951F93CF93E4
:20388000DF93CBEBD4E010E08881833708F01883812F0E94941B812F0E94BA04812F0E94A3
:2038A00099368091CA04181711F40E94BC1A1F5F21961F3049F7DF91CF911F910895ABEB37
:2038C000B4E0FC018FE001900D928150E1F70E943E1C0E94561A0E94F9090895809164004B
:2038E000882379F19091CA049F30D0F4992351F48091B904882331F01092B90480E00E9435
:20390000EF1B0895E92FF0E0E554FB4F8081891739F09083892F0E94EF1B0E94561A0895A5
:20392000892F0E946C1A60E0FC0187A1882309F461E08091CA040E94201B8091CA040E941C
:20394000EF1B0895EF92FF920F931F93F62EE72E142F052F8337E0F40E946C1AAC01DC016A
:20396000812F902F9C01F90187E201900D928150E1F7DA0197968F2D9E2D9C01F9018FE06A
:2039800001900D928150E1F70E94C7030E94081B1F910F91FF90EF900895EF92FF920F936E
:2039A0001F93CF93DF93182F80916400882309F48BC0103108F088C08BEC94E060E270E0D4
:2039C00047E250E00E94D73A8BEC94E064E071E04BE050E00E94AA3AC0E0D0E0F1E0EF2E3C
:2039E000F12C6091F2047091F3048091F4049091F5044BEC54E00E94C415882309F058C006
:203A00008FE0189FE0011124C554DC4F6091F2047091F3048091F4049091F50440E050E0D4
:203A20002BEC34E000E0E2E0EE2E0E941012DE011996ECE7F5E086E001900D928150E1F764
:203A400019821A821B821C821D821E821F82188682E088838EE28093D30481E48093D4045F
:203A600084E58093D50482E58093D604812F0E94AA04BE014BEC54E00E94A21C00E0812F83
:203A80000E94AA04811759F4802F0E94BA04011731F0802F0E94941B802F0E9499360F5F1B
:203AA0000F3069F70E94BC1A0E94F90981E00DC0B7016C1B7D0B8FEC94E00E940803219702
:203AC00009F08FCF0E94BC1A8FEFCDB7DEB7E6E00C94883A0F931F93162F072F833780F45B
:203AE0000E946C1ADC01212F302FC901FC0186E301900D928150E1F70E94C7030E94081BD8
:203B00001F910F9108951F93CF93DF93EC01162F6237F0F48FA1882319F4862F60E004C0E2
:203B2000833029F4862F61E00E94201B0CC0CE0162E00E94181687FF02C08FEF0AC0812FF5
:203B4000BE010E946A1D812F0E94EF1B0E94F90981E0DF91CF911F910895CF93DF93EB013F
:203B6000833758F40E946C1ABC01CE0141E00E94AE0C0E94C7030E94081BDF91CF91089570
:203B800080916400882371F180911D05823011F59091CA04992339F48091B904882329F04E
:203BA0001092B90402C09F3050F4E92FF0E0E554FB4F8081891719F090830E94561A809186
:203BC000CA0466EF74E00E94AD1D8091CA040E94EF1B0895813031F48EE195E00E94430C2F
:203BE0000E946B1508951F93182F8F3098F40E946C1A2FE0129FF0011124DC019796E55471
:203C0000FC4F8FE001900D928150E1F70E94C7030E94081B1F91089580E00E940D1A809159
:203C200082008A3511F0853A51F4ABEBB4E0E3E8F0E08FE001900D928150E1F708C08BEBF3
:203C400094E06FEF70E04FE050E00E94D73A80918200853A19F00E94081B089580919200D0
:203C60008093BA040895A0E0B0E0E9E3FEE10C94603A382E4B0159016A0138012E2C8091C6
:203C80006400882309F468C0832D90E0FC0124E0EE0FFF1F2A95E1F7E81BF90BE554FC4F92
:203CA0002581368147815085A216B306C406D50608F052C0C801A0E0B0E08A0D9B1DAC1DF9
:203CC000BD1D281739074A075B0718F439016A187B088301412C82E0582E39C0BFEFEB2EF4
:203CE000B1E0FB2EEA20FB20E201CE19DF090C171D0708F4E801A6019501A9E0569547957A
:203D000037952795AA95D1F7832DB9010E9445100E94F10A97012E573F4F222031F4C4013F
:203D2000B901AE010E94CE3A07C0C901B401AE010E94CE3A0E94C7030C1B1D0BCE01A0E0C7
:203D4000B0E0A80EB91ECA1EDB1E8C0E9D1E0115110521F6830102C000E010E0C801CDB76A
:203D6000DEB7E2E10C947C3AA0E0B0E0EAEBFEE10C94683AEC01FB01E0909805F09099057B
:203D800000919A0510919B055B01CC24DD24A60195012E0D3F1D401F511F8091A1049091EB
:203DA000A204A091A304B091A40482179307A407B50710F48FEF1DC08FE0BE01A801970134
:203DC0008F01EE240E94331E8091980590919905A0919A05B0919B058A0D9B1DAC1DBD1D3E
:203DE0008093980590939905A0939A05B0939B0581E0CDB7DEB7EAE00C94843AA2E1B0E0E8
:203E0000E4E0FFE10C94603A9A8B898B4D835E836F83788720917D0030917E0040917F002C
:203E20005091800029833A834B835C83DC015C966D917D918D919C915F972D813E814F81B2
:203E40005885621773078407950709F44EC10E9404053B014C016D817E818F8198850E946F
:203E600004051B012C01661577058805990508F067C089899A890E941A045B016C012114BC
:203E800031044104510431F16987BA868B87DC8682017101B501C6010E94600E5B016C0142
:203EA0000894E108F10801091109E114F1040105110529F06987BA868B87DC86EBCF621869
:203EC00073088408950869857A858B859C850E94590E2AC069817A818B819C810E94F10A82
:203EE00089899A8940E050E060E070E00E9436040E94C70319C0B501C6010E94600E162FBA
:203F0000072FF82EE92EB501C60120E030E040E050E00E94C80C089461087108810891083B
:203F2000A12EB02ECF2CDE2C611471048104910411F769817A818B819C810E94F10AC1C097
:203F4000661677068806990608F0BBC089899A890E941A046D877E878F87988B84017301A8
:203F60004DEFA42E4FEFB42E4FEFC42ED12C18C06D857E858F8598890E94600E0894E1084F
:203F8000F10801091109ED85FE85DF84C8889F014D2D5C2D59016A016D877E878F87988BC2
:203FA000E114F1040105110519F7D201C10186199709A809B9093C014D0131E0E32EF12CDA
:203FC000012D112D74C00894E11CF11C011D111DC801B7010E9457117B018C019DEFE91630
:203FE0009FEFF9069FEF090790E01907D9F5ADEFAA16AFEFBA06AFEFCA06A0E0DA0639F483
:2040000069817A818B819C810E94F10A29C0C601B5010E94590E6D817E818F8198850E94CA
:2040200004057B018C01E618F7080809190980917B0090E0099604C0EE0CFF1C001F111F7B
:204040008A95D2F769817A818B819C810E94F10AE989FA89E48EF58E068F178F0E94C7033C
:2040600080E044C0FDEFAF16FFEFBF06FFEFCF06F0E0DF0679F469817A818B819C810E94E3
:20408000F10A89899A89B801A7010E9436040E94C70306C0C601B501A80197010E94C80C4D
:2040A0000894610871088108910857016801611471048104910409F086CFC601B5010E942E
:2040C000590E69817A818B819C810E94F10A2D813E814F815885A989BA895C962D933D93BD
:2040E0004D935C935F970E94C70381E06296E2E10C947C3A0F931F93CF93DF938C01FC016B
:204100008385C82FD0E084FF15C0C80160ED70E04BE050E00E94B33A892B61F4C8010E94D4
:204120001A046093AD047093AE048093AF049093B004D3C0CE71D070CD2B09F0D4C0C8010B
:204140006BED70E048E050E00E94B33A892B09F0CAC0E8012896CE0166EE70E043E050E02C
:204160000E94B33A892B51F0CE0169EE70E043E050E00E94B33A892B09F047C08BE580932C
:20418000CB04ACECB4E0F80186E001900D928150E1F78EE28093D204A3EDB4E0F8013896A8
:2041A00083E001900D928150E1F78DE58093D60487ED94E060E270E04CE150E00E94D73ADA
:2041C00082E080939C04C8010E941A0460939D0470939E0480939F049093A004F801848D81
:2041E000958DA68DB78D8093A1049093A204A093A304B093A404A5EAB4E0ECE7F5E086E0AF
:2042000001900D928150E1F768C0CE0163EE70E043E050E00E94B33A892B59F5F801848D3F
:20422000958DA68DB78D80509D41A040B040A9F0C80140E05DE160E070E00E94FE1EC80190
:204240000E941A046093B1047093B2048093B3049093B4040E94191A40C0C8010E941A043A
:204260006093B1047093B2048093B3049093B40434C0CE016CEE70E043E050E00E94B33AE9
:20428000892B09F072C0F801848D958DA68DB78D8030F8E79F07F0E0AF07F0E0BF0729F032
:2042A00080509048A040B04061F4C8010E941A046093B5047093B6048093B7049093B80492
:2042C0000CC08DEF9FEFAFEFB0E08093B5049093B604A093B704B093B8048091CA048F5F77
:2042E0008093CA0442C0F80180818823F1F58091AD049091AE04A091AF04B091B00400974B
:20430000A105B105B9F18091B1049091B204A091B304B091B4040097A105B10559F5C8010F
:204320006BED70E04BE050E00E94AA3AC8010B966FEE70E045E150E00E94AA3A0E94C70395
:20434000C80140E05DE160E070E00E94FE1EC8010E941A046093B1047093B2048093B30434
:204360009093B4040E94191A05C090E08091CA04843009F491E0892FDF91CF911F910F917F
:2043800008951092AD041092AE041092AF041092B0041092B1041092B2041092B304109284
:2043A000B4041092B5041092B6041092B7041092B8041092CA048091650090916600892BB2
:2043C00029F081E090E0A0E0B0E008C080916F0090917000A0917100B091720080937C0521
:2043E00090937D05A0937E05B0937F058FEF9FEF90938105809380058CE795E061E070E0D5
:204400000E948711009721F00E947A208823A1F308959F92AF92BF92CF92DF92EF92FF92FB
:204420000F931F93982E5A016B010FE0809F8001112405541C4FC80109960E94C40B7C01BD
:20444000B601A5010E94FE1ED82EF701848D958DA68DB78DF80185839683A783B087C70156
:204460000E941A04F8016183728383839483892D0E94AA040E94F31D892D0E94BA048D2D05
:204480001F910F91FF90EF90DF90CF90BF90AF909F900895AF92BF92CF92DF92EF920F930F
:2044A0001F93CF93DF93EC018B015B01CC24DD24409198055091990560919A0570919B0592
:2044C0004A0D5B1D6C1D7D1D8091A1049091A204A091A304B091A40484179507A607B7070A
:2044E00068F4413080E0580780E1680780E0780710F08FEF26C08FE00E9409222091980593
:204500003091990540919A0550919B058FE0BE01EE24E3940E94331E809198059091990534
:20452000A0919A05B0919B058A0D9B1DAC1DBD1D8093980590939905A0939A05B0939B05B2
:2045400081E0DF91CF911F910F91EF90DF90CF90BF90AF900895FC014081518162817381FB
:204560008FE00E9409220895A0E0B0E0EAEBF2E20C94623A60916000709161008091620047
:20458000909163000E94F10A80918D0090918E008050924009F05CC0E0918F00EE2309F4E8
:2045A00057C0C0909000D0909100C114D10409F44FC080919200823009F04AC0809195005F
:2045C00090919600AC0160E070E0411551056105710541F44091A2005091A3006091A4009E
:2045E0007091A5008091980090919900A0E0B0E080936B0090936C00A0936D00B0936E0044
:204600000097A105B10581F48091A6009091A700A091A800B091A90080936B0090936C00E3
:20462000A0936D00B0936E004090930050909400E0906B00F0906C0000916D0010916E007E
:204640002E2F30E0C901019782239323892B21F01092640080E0B2C0E201F4E0D695C79515
:20466000FA95E1F75601CC24DD243E01882499249A01AB012A193B094C095D092E193F09CB
:20468000400B510B2E193F09400B510B2619370948095909E0937C0080E006C0569547952F
:2046A00037952795E695892F982F9F5FE230B0F780937B002F5F3F4F4F4F5F4F20937700A1
:2046C000309378004093790050937A00203F8FE0380780E0480780E0580710F481E012C044
:2046E000203F8FEF380780E0480780E0580710F482E008C0205030404040514010F483E0AA
:2047000001C084E080936400209160003091610040916200509163002A0D3B1D4C1D5D1DE1
:2047200020936700309368004093690050936A00D801C701880F991FAA1FBB1FCD2BE9F047
:204740005092660040926500820F931FA41FB51F80936F0090937000A0937100B093720092
:20476000860D971DA81DB91D8093730090937400A0937500B093760020C01092660010924F
:204780006500820F931FA41FB51F8093730090937400A0937500B09376008091AE0090917C
:2047A000AF00A091B000B091B10080936F0090937000A0937100B093720081E0CDB7DEB78F
:2047C000E0E10C947E3A60E070E080E090E00E94F10A20918F0080918D0090918E00805066
:2047E0009240E9F42223D9F030E0C901019782239323892BA1F48091900090919100892BDF
:2048000071F080919200823051F41092600010926100109262001092630081E00895809180
:20482000480290914902A0914A02B0914B028093600090936100A0936200B0936300809174
:2048400044028D3048F48B3060F4843051F0863041F08130D1F505C08E3019F08E3EA9F5C1
:2048600002C082E0089561E070E080E090E00E94F10A82E890E062E371E048E050E00E940F
:204880009D3A892B11F562E070E080E090E00E94F10A82E890E06AE371E040E150E00E941D
:2048A0009D3A892B91F48091A2009091A300A091A400B091A5008093600090936100A0938C
:2048C0006200B093630083E0089580E00895FF920F931F93082F0E945F2D882321F4109227
:2048E000640081E0ABC00E94C609E8E8F2E080E08F5F808337968732D9F78FEF80939903A1
:2049000010929A03EBE9F3E080E09FEF808391838F5F32968031D1F70E94E323F82E882304
:2049200009F48BC00E94B422882309F484C080916400843019F41092640080C010929C040D
:204940000E94C1211092CA048091AD049091AE04A091AF04B091B0040097A105B10521F4ED
:204960001092640085E06AC00E940C1E0E941529182F8091AA07813059F0193049F011233D
:2049800071F4002361F082E00E94932E813039F482E78093B90481E08093AA070AC0812FC3
:2049A0008150843020F4125F1093B90402C01092B9048091AA07882311F41092AA07809196
:2049C0009C04882341F48BEC94E064EC70E04CE050E00E94AA3A0CE914E082E7B8014BECA8
:2049E00054E00E94A21C0E943E1C6091AD047091AE048091AF049091B0040E946B150E9475
:204A0000F9098FE0F80111928A95E9F781E00E94B42F8091AA07823061F00E944F2B182F7C
:204A20000E942B2B682F812F4F2D209164000E94852681E006C083E001C082E08093B904DC
:204A400080E01F910F91FF9008958FE78093C5058093C4050895FC0190E080E028E0990F31
:204A6000880F67FD8F5F8A3010F08A509F5F215011F0660FF4CF9A3010F088E503C0805D3A
:204A8000992319F4808381E00895905D9083818382E008951F93CF93DF93282F162FEA013C
:204AA0008091C7058823E1F58CE995E0622F0E94F5028AE380939E0580E280939F0584E2E2
:204AC0008093A00581EA95E0612F0E94F50217FD02C088E201C08BE58093A305812F90E0C9
:204AE0008F77907080971CF0812F8F7701C08EE28093A40517FD02C089E201C08DE5809363
:204B0000A50580E28093A60584E28093A70588EA95E0BE010E9408038CE995E00E94BE29E0
:204B200086E98093C805DF91CF911F910895FF920F931F93282F062FF72E142F8F3010F46D
:204B400084E402C02F5086E580939C052F5F8DE995E0622F0E942B25482F50E0112311F4B1
:204B60009AE301C09CE3FA01E456FA4F9183282F30E022563A4FE6E2F0E0E41BF50BC9011D
:204B8000602F7F2DAF010E94CE3A1F910F91FF900895EF92FF920F931F93142FF22EE32E2A
:204BA000402F0E94972580E86CE975E00E949729112379F08FE280939C05ADE9B5E02F2D6B
:204BC0003E2DC901FC0187E201900D928150E1F70EC0ACE9B5E08F2D9E2D9C01F90187E2E2
:204BE00001900D928150E1F780E28093C30580EC6CE975E00E9497291F910F91FF90EF90C9
:204C000008958CE995E060E270E048E250E00E94D73A08951F93CF93DF93182FEB010E9476
:204C20000126ACE9B5E0FE0121968491882331F095E0A43CB90711F08D93F5CF812F6CE98D
:204C400075E00E949729DF91CF911F9108950F931F939C018B0180E8B9010E940A2680ECA3
:204C6000B8010E940A261F910F910895FF920F931F939C01F62E80E8B9010E940A260E9480
:204C800001260CE915E0C8016F2D0E942B2580ECB8010E9497291F910F91FF900895BF9258
:204CA000CF92DF92EF92FF920F931F93FC016A017B01B22E80E8BF010E940A260E94012635
:204CC0000CE915E0C801B701A6010E941903992787FD9095F801E80FF91F28E2218324E2DF
:204CE000228329E225830396800F911F6B2D0E94F50280ECB8010E9497291F910F91FF90ED
:204D0000EF90DF90CF90BF900895EF92FF920F931F93CF93DF93182FE62E042FF22E0E94D0
:204D20000126112311F493E005C0143010F091E001C094E0802F8250823010F021E001C0FC
:204D400023E08F2D8150833010F081E001C085E0290F280F8CE090E0821B910995958795C1
:204D6000C82FD0E0C456DA4F113089F0113028F0123089F01330E9F418C0CE0167E771E015
:204D800043E050E00E94AA3AFE01339615C0CE016AE771E003C0CE016EE771E044E050E0A0
:204DA0000E94AA3AFE01349607C0CE0162E871E0F5CFFE018DE28193EF018FE28993EE20A2
:204DC00011F48CE401C088E4FE0181938FE289839F012F5F3F4F023019F0033079F404C046
:204DE000C90166E871E003C0C90169E871E043E050E00E94AA3ACE01059604C08DE28183A1
:204E0000C9010196FC018FE2819382E0F81651F083E0F81679F081E0F81681F4CF016CE81C
:204E200071E003C0CF0161E971E045E050E00E94AA3A06C0CF0166E971E0F7CF8DE28083AA
:204E400080EC6CE975E00E9497298AEF8093C805CDB7DEB7E6E00C94883ACF92DF92EF92ED
:204E6000FF921F93182F7B010E9401263CE9C32E35E0D32EC601B70140E150E00E94AA3AE1
:204E8000812FB6010E9497291F91FF90EF90DF90CF9008950F931F938C0180E86BE872E032
:204EA0000E942D2780ECB8010E942D271F910F9108958BED91E00E944A2708958BEE91E071
:204EC0000E944A2708958BEF91E00E944A2708958BE092E00E944A2708958BE192E00E947A
:204EE0004A2708958BE292E00E944A2708958BE392E00E944A2708958091AA07823091F090
:204F0000833028F4882341F0813041F508C0833061F0843019F50EC00E94F90908958BE4F3
:204F200092E005C00E94D92E08958BE592E00E944A27089580E86BE971E00E942D270E94BD
:204F40009509882331F080EC6BE672E00E942D27089580EC6BE772E00E942D2708951F93F0
:204F6000182F8091AA07813021F4113011F00E941B1C8091AA07813021F0113011F40E94DB
:204F8000261C1093AA07112319F0123039F403C00E944B0A05C00E94842F02C00E947C27F4
:204FA0001F9108959091AA07943029F4823029F40E94780F08959923B9F1843071F085302C
:204FC00018F4833071F405C0873029F0883049F406C080E00BC084E009C081E007C083E07A
:204FE00005C0923031F08823E1F082E00E94AF270895823081F0833018F48130D9F505C0F0
:20500000853031F08630B1F509C00E94762F08950E94672F08950E94572F08950E94472FFF
:205020000895992339F521C090E0FC013197E830F105D8F4EE5FFF4F0C94973A0E94E81A49
:2050400014C00E94B11511C00E9481150EC00E94C01D0BC00E94CB1A08C00E946F1905C0B5
:205060000E94AC1B02C00E946E1C0E947C2784E68093C70508951F930E941529182F9091B4
:20508000C405892F8F778F3719F09F5F9093C4051930E1F48091C40587FF22C08E3918F0A1
:2050A0001092C4051DC08091AA07882341F40E940409882311F081E003C082E001C080E004
:2050C0000E94AF278FE78093C4050AC0112331F48091C40580688093C40503C0193008F041
:2050E00010E08091C5058117A9F48091C605882331F181508093C605882309F587E00E94A6
:20510000932E90E0880F991F8093C605812F0E94D2270FC0882389F4112379F0812F0E9400
:20512000D22786E00E94932E90E0880F991F8093C6058FE78093C40502C01092C60580917E
:20514000C5058F3711F4112311F41093C5058091C705882319F081508093C7058091C805F5
:20516000882339F081508093C805882311F40E947C271F910895A0E0B0E0E1ECF8E20C9411
:20518000693A6C01062FF42E122F80E867E671E00E942D270E940126B12E10FD03C0CCE93E
:2051A000D5E005C08AE280939C05CDE9D5E010E0CE01B601402F50E00E94CE3AFE01E00F3D
:2051C000F11FB1FE02C08AE281938FEFF816C9F0EF018EE28993B4FE03C08AE28183219671
:2051E000EF2CFF249601200F311FCE01B9014E2D50E00E94CE3AB5FE04C0CE0DDF1D8AE2C3
:20520000888380EC6CE975E00E94972982E38093C805CDB7DEB7E9E00C94853A88B38F615A
:2052200088BB87B3807E87BB089586B390E0A0E0B0E08F719070A070B070FC0180329105E6
:20524000C0F4E65FFF4F0C94973A82E0089581E0089583E0089584E0089585E0089586E030
:20526000089587E0089588E0089589E0089580E008958FEF0895282FDD98662311F0DC98A0
:2052800001C0DC9A8AB38F608ABB8BB3922F92959F70807F982B9BBBDE9A85E08A95F1F735
:2052A000DE98623068F483E08A95F1F78BB32F70807F822B8BBBDE9A85E08A95F1F7DE98F7
:2052C0008AB3807F8ABB0895DD9A882311F0DC9801C0DC9A8AB3807F8ABBDE9A85E08A9565
:2052E000F1F799B3DE9885E08A95F1F7DE9A85E08A95F1F789B38F709295907FDE98892B19
:205300000895CF93DF938091C905882331F40CC0219729F41092C90507C0C0E1D7E281E0DA
:205320000E94642987FDF4CFDF91CF9108951F93CF93DF93EB0161E00E943B290E94812985
:2053400018E2899160E00E943B290E9481291150C1F781E08093CA05DF91CF911F9108952E
:2053600080EC61E00E943B290E948129089583E260E00E943B290E94812908950F931F93A9
:20538000CF93DF93EC018C01005F1F4F8091CA058823A9F0C80160E270E048E150E00E9478
:2053A000D73A80ECBE010E949729D801FE0180E101900D928150E1F71092CA051BC091E080
:2053C00000EC19918F85181711F491E010C01F87992331F0802F61E00E943B290E948129E9
:2053E000812F60E00E943B290E94812990E00F5F003D39F7DF91CF911F910F9108951F93B1
:205400008AB380678ABBDE9811E01093C90587E39AE10E94A80380E262E00E943B298EE5FC
:2054200094E00E94A80380E262E00E943B298FED90E00E94A80380E262E00E943B290E947C
:20544000812988E261E00E943B290E94812988E261E00E943B290E9481298CE061E00E9459
:205460003B290E94812986E061E00E943B290E94812981E061E00E943B298FEB91E00E944E
:20548000A80382E061E00E943B298FEB91E00E94A8031093CA051F910895882311F0AD98D0
:2054A0000895AD9A08959091CB05992311F0923029F4882311F0AE980895AE9A0895909149
:2054C000CB05923031F4882311F0AE980895AE9A0895992329F4882311F0AF980895AF9AEF
:2054E00008959091CB05913031F4882311F0AE980895AE9A0895923029F4882311F0AF98F2
:205500000895AF9A0895982F8091CB058150823028F4992311F0AF980895AF9A0895982F73
:205520008091CB05823029F4992311F0AF980895AF9A089585B3806E85BB089585B38F71F9
:2055400085BB84B3806E84BB83E00E94932E8093CB0508950F931F939FEF192F0E944C3019
:20556000882311F00E9498380E94332B882341F00E94F60980E00E944D2A80E00E94AF273F
:205580000E94412B882329F100E01F3F09F401E080E00E94AF278AE79AED0E94A80381E09E
:2055A0000E94222B10E009C080E0112309F481E00E94222B1F5F153031F0802F0E946724A2
:2055C000882391F305C081E00E944D2A0E947C2710E00E948803882309F20E943B280E94AE
:2055E000AD0390E0882309F4B8CF912F9F5F923308F4B3CF0E94E80A90E0AFCFF8941092AB
:20560000AA070E947E030E949E2A0E949A2A0E94FF290E940E290E9425250E94162B0E94D2
:2056200054300E94AA2A80E090E0089585B3807E8B6185BB84B3807E876084BB82E08093D1
:20564000CD050895882319F01092CC05089581E08093CC05089590E08091CC05882309F43B
:2056600091E0892F08958091CD05882341F09C9B06C01092CD051092CE0581E0089580E061
:2056800008958091CD05813041F09C9906C081E08093CD051092CE05089580E00895809147
:2056A000CE050895A99A3091CC05332381F080E028E0932F9A95F1F7880FAA9A932F9A95D1
:2056C000F1F79B998F5FAA98215099F7089595B39660292F2B7F0000000095BB9B9B02C058
:2056E00080E801C080E025BB0000000095BB9B99806425BB0000000095BB9B99806225BBB3
:205700000000000095BB9B99806125BB0000000095BB9B99886025BB0000000095BB9B9974
:20572000846025BB0000000095BB9B99826025BB0000000095BB9B99816025BB08953091BC
:20574000CC05332391F028E087FF02C0A99A01C0A998932F9A95F1F7AA9A932F9A95F1F716
:20576000AA982150D9F1880FEFCF95B3997F9260292F2D7F87FF02C095BB01C025BBAA9A84
:2057800086FF02C095BB01C025BBAA9A85FF02C095BB01C025BBAA9A84FF02C095BB01C0BC
:2057A00025BBAA9A83FF02C095BB01C025BBAA9A82FF02C095BB01C025BBAA9A81FF02C092
:2057C00095BB01C025BBAA9A80FF02C095BB01C025BBAA9A000000000000AA980895CF93DD
:2057E000DF93C8E8D3E10E94522B8F3F11F42197D1F7DF91CF910895CF93DF930E94522B01
:20580000C0E0D0E00E94522B8F3F11F481E003C02197C1F780E0DF91CF910895A89A0E9401
:20582000522B0895A8980E94FC2B882311F081E008950E940E2C80E00895DF92EF92FF923F
:205840000F931F93182FF62EE42ED22E0E940E2C0E94122C882311F48FEF15C0812F806424
:205860000E949F2B8F2D0E949F2B8E2D0E949F2B8D2D0E949F2B802F0E949F2B8FEF0E940C
:205880009F2B0E94EF2B1F910F91FF90EF90DF9008951F93182F0E940E2C0E94122C8823B8
:2058A00011F48FEF15C0812F80640E949F2B80E00E949F2B80E00E949F2B80E00E949F2B2C
:2058C00080E00E949F2B8FEF0E949F2B0E94EF2B1F910895CF92DF92EF92FF920F931F93D1
:2058E000182FF62ED42EC22E86FF05C087E30E94492C8230E8F40E940E2C0E94122C88238B
:2059000011F48FEF15C0812F80640E949F2B8F2D0E949F2B8D2D0E949F2B8C2D0E949F2BBC
:20592000802F0E949F2B8E2D0E949F2B0E94EF2B1F910F91FF90EF90DF90CF900895EF921F
:20594000FF920F931F93CF93DF937B018C01EA018091CE05833031F481E1612F402F2F2D21
:205960000E2D0BC098018701000F111F221F331F81E1622F412F202F00E00E941D2C882306
:20598000A1F40E94EF2B8E3F81F410E00E94522B88830E94522B898322961150B9F70E94C4
:2059A000522B0E94522B81E001C080E0CDB7DEB7E6E00C94883AEF92FF920F931F93CF93C0
:2059C000DF937B018C01EA018091CE05833031F488E1612F402F2F2D0E2D0BC098018701BA
:2059E000000F111F221F331F88E1622F412F202F00E00E941D2C8823E1F48EEF0E949F2BE8
:205A000010E088810E949F2B898122960E949F2B1150B9F70E94522B0E94522B0E94EF2BE8
:205A20008F71853031F40E94522B8823E1F381E001C080E0CDB7DEB7E6E00C94883AEF92AA
:205A4000FF920F931F937B018C018091CE05833031F488E1612F402F2F2D0E2D0BC0980139
:205A60008701000F111F221F331F88E1622F412F202F00E00E941D2C8823D9F48EEF0E94B1
:205A80009F2B10E080E00E949F2B80E00E949F2B1150C1F70E94522B0E94522B0E94EF2BA1
:205AA0008F71853031F40E94522B8823E1F381E001C080E01F910F91FF90EF900895A4E06D
:205AC000B0E0E5E6FDE20C94663AF090CC051092CE05A89A8AE08093CC058AE791E10E9471
:205AE000A80388EE9DEF0E94910304E610E00E94522B01501040D9F780E060E040E020E099
:205B000000E0E5E9EE2E0E946A2C182F813009F099C088E060E040E021E00AEA77E8E72E08
:205B20000E946A2C813009F050C04E010894811C911C54018E010B5F1F4F0E94522BF5016D
:205B400081935F01E017F107C1F78B81813009F079C08C818A3A09F075C068ECC62ED12CF7
:205B600008B604FC6FC089E660E440E020E000E0EE24EA940E946A2C0894C108D108C114AA
:205B8000D10419F0882361F703C0882309F05AC08AE360E040E020E000E0EE24EA940E94C4
:205BA0006A2C882309F04EC00E94522BF40181934F01EA15FB05C1F7898186FF02C083E0BA
:205BC00001C082E08093CE0537C089E660E040E020E000E0EE24EA940E946A2C823020F488
:205BE0001093CE0519E603C01092CE0511E058ECC52ED12C08B604FC23C0812F60E040E022
:205C000020E000E0EE24EA940E946A2C0894C108D108C114D10419F0882361F702C088237B
:205C200089F480E160E040E022E000E0EE24EA940E946A2C882321F4F092CC0581E003C045
:205C40001092CE0580E02496ECE00C94823ACF92DF92EF92FF920F931F936B017C0100E08C
:205C600010E020E030E080E090E0A0E0B0E0E0E060E070E0000F111F221F331F880F991FD3
:205C8000AA1FBB1FF7FE03C00196A11DB11D84179507A607B70740F0841B950BA60BB70B02
:205CA0000F5F1F4F2F4F3F4FEF5FE03229F0CC0CDD1CEE1CFF1CDECF880F991FAA1FBB1FEE
:205CC00084179507A607B70720F00F5F1F4F2F4F3F4FB801C9011F910F91FF90EF90DF90DA
:205CE000CF9008950F931F93CF93DF938C01C0E0D1E0CE01F80161918F010E94E63A2196DF
:205D0000F1E0C830DF07A9F7DF91CF911F910F9108958091CF0590E080509F4F6091D0059E
:205D20000E94E63A0895CF93DF93C82FD0E0CE0180509F4F0E94DE3AFE01E556FD4FE49147
:205D4000E81720F4CD55DD4FFE018491DF91CF9108951F93CF93DF93EC0110E0812F0E94AC
:205D6000932E89931F5F1830C9F7DF91CF911F9108951F93CF93DF938091CF05C82FD0E091
:205D8000FE01E556FD4F14911093D105CE0180509F4F0E94DE3A8093D005181730F4CD55BB
:205DA000DD4FFE0184918093D005DF91CF911F9108951F938091CF05E82FF0E0E830F10512
:205DC00008F063C0E65DFF4F0C94973A1091D005113129F48BEA92E06BEB72E04AC0412FC8
:205DE00050E0495F5F4F440F551F62EE79EF8AEA9AE00E94272EAB01BC018BEA92E0212F19
:205E00000E944F2642C08091D005E82FF0E0EE0FFF1FE154FD4F6591749183EC92E029C03B
:205E20008091D005E82FF0E0EE0FFF1FEE52FD4F6591749186ED92E01CC08091D005E82F35
:205E4000F0E0EE0FFF1FEC51FD4F659174918AEE92E00FC084EF92E014C08091D005E82F64
:205E6000F0E0EE0FFF1FE150FD4F6591749185E093E00E94272609C084E193E002C083E230
:205E800093E06091D0050E9436261F9108958091D00581508093D0059091D105981710F435
:205EA0009093D0050E94892E0E94D92E08958091D0058F5F8093D0059091D105981710F4E5
:205EC0001092D0050E94892E0E94D92E08958091CF0581508093CF05883018F087E08093D5
:205EE000CF050E94B92E0E94D92E08958091CF058F5F8093CF05883010F01092CF050E9475
:205F0000B92E0E94D92E0895CF93DF9384E691E00E94DE3A853A31F485E691E00E94DE3A71
:205F20008330A9F0C0E0D1E0CE016FEF0E94E63A219681E0C436D807B9F784E691E065EA0A
:205F40000E94E63A85E691E063E00E94E63A8091CF05883010F01092CF050E94B92E0E9460
:205F6000D92EDF91CF910895880F8093D6050895982F5D9BFECF80E48BB99CB98091D40518
:205F8000882329F05E9BFECF82E08A95F1F708950F931F93CF93DF93EC01062F10E089911D
:205FA000180F111D0E94B82F0150C9F7812F0E94B82FDF91CF911F910F91089508C008B676
:205FC00004FE05C081E08093D50580E008955F9BF6CF5C9B03C081E08093D5058CB108950E
:205FE000982F81508F3050F08058843610F4815F0895903811F08FEF089582E708958F304E
:2060000010F48F5F0895823710F48E580895823711F08FEF089580E8089510BC86E189B962
:206020001092D405089510BC8CE089B91092D4058EE880BD089581E40E94B82F5E9BFECF4F
:2060400082EB90E00E9491038091D205813011F40E940D30089510BC8091D3058823A9F01A
:2060600080E00E94932E982F813118F08EE289B903C09A5F99B99650933020F481E08093EB
:20608000D40507C01092D40504C01092D4058EE289B986E880BD0895829B02C080E00895D0
:2060A0000E942B3081E0089586E880BD1BB888E18AB9929A8A981092D3051092D2050E94D8
:2060C0002B301092D70508950E941B300E949C0383E40E94B82F08950E949C0383E40E9445
:2060E000B82F08950E949C0385E40E94B82F08951F93182F0E941B30812F0E94A1150E94BC
:206100006C301F9108950F931F93082F162F662331F0653028F08EE40E94B82F0DC011E0B6
:206120000E941B30802F0E94F02F0E94301C0F5F1150C1F70E946C301F910F9108951F93B0
:20614000182F0E949C0385E40E94B82F8EE490E00E94A8038AEA96E0612F0E94C82F1F91D3
:2061600008951F93182F0E949C0383E40E94B82F8EE490E00E94A8038AEA96E0612F0E940D
:20618000C82F1F9108950E941B308AEA96E00E94DA0883E00E94B13008951F93182F0E9442
:2061A0001B30112319F460E071E002C0612F70E08AEA96E00E94B41E87FF04C0812F0E9426
:2061C0009F3003C0812F0E94B1301F9108950E941B308AEA96E00E94E80883E00E94B1305E
:2061E0000895CF93DF930E941B308AEA96E00E94BD09CAEAD6E088810E94FF2F899386E02A
:20620000C93BD807C1F78FE00E94B130DF91CF9108950E941B308AEA96E00E94A92E80E1D3
:206220000E94B13008950E941B3081E38093AA0681E00E94B13008950E941B308AEA96E0D2
:2062400060EE76E00E94B314882319F086E30E94B13008950E941B300E940D148093AA0681
:206260009093AB0682E00E94B13008950E941B308AEA96E00E94A81487FF04C086E30E943E
:206280009F30089586E30E94B1300895A0E0B0E0ECE4F1E30C946B3A182FE62E882331F0E9
:2062A000853028F08EE40E94B82F47C011E00E941B308091D605823011F0843061F4E0FCAD
:2062C00007C00E94CF08882319F4FF24F39404C081E08093D605FF24CAEAD6E086E3D82E0D
:2062E0001150812F90E0019626E330E0829F8001839F100D929F100D11240C0F1D1FFF2093
:2063000031F0FE012D2D11922A95E9F70BC0CE016E2D0E940419181624F0EE24FF24F394CF
:2063200001C0EE24E696C017D10749F78AEA96E0FE01E81B8E2F0E94B130CDB7DEB7E7E013
:206340000C94873A0F931F93CF93DF93082F162F662331F0653028F08EE40E94B82F1FC007
:2063600011E00E941B30CAEAD6E0802F0E94F02F682FCE010E948E1AE6960F5F1150A9F7CA
:206380008AEA96E09E01281B822F0E94B1308091D6058250823018F481E08093D605DF91C2
:2063A000CF911F910F9108950E941B308091D6058093AA0681E00E94B1308091D605823072
:2063C00018F081E08093D60508951F9380E00E94932E182F813148F081E00E94932E8823B4
:2063E00011F410E109C016E007C08091D305882319F481E08093D30581E00E948F2A0E94D6
:206400001B301093AA0681E00E94B13080E00E948F2A1F910895CF92DF92EF920F931F934B
:20642000CF93DF936C01E62E8A014115510531F0FC01828593858417950720F48EE40E9434
:20644000B82F12C181E00E94712A0E941B30F601818180FF4BC0B8016150704081FD04C018
:206460009B0140E050E01CC083FF14C09B0140E050E06330710528F4542F432F322F22274E
:2064800016C0542F432F322F2227205F3F4F4F4F5F4F22C09B0140E050E063307105A0F4C3
:2064A000E7E0220F331F441F551FEA95D1F7205F3F4F4F4F5F4F8E2D6AEA76E000E810E0DE
:2064C000EE240E94331EC6C0542F432F322F222720573140404050408E2D6AEA76E000E055
:2064E00011E0EE240E94331E90E0B5C0F60144855585CAEAD6E080E8FE0111928A95E9F7B4
:206500000130110521F4CE016BE973E006C00230110541F4CE016BE174E040E850E00E94FD
:20652000AA3A98C00330110599F4CE0169E874E042E150E00E94AA3A8E2D0E94AC1ADE01FA
:206540009896FC0187E201900D928150E1F782C0F1E008361F0729F44093AB065093AC0621
:2065600079C081E00936180759F5E3E0443F5E0710F482E401C086E48093AA064093AB064E
:206580005093AC06452B19F084E08093AD068E2D0E94AC1A60E070E04FEA56E020E00E94FF
:2065A0000206882309F056C088E58093AF0680EB96E060E270E04AE050E00E94D73A4AC05A
:2065C000E8012196F1E008361F0750F498012450304081E0C836D80769F4C1E7D1E00AC067
:2065E000E1E001371E0718F42FEF3FEF03C098012D503040C90101968417950710F0C0E0A4
:20660000D0E04217530730F1C901A0E0B0E09C01AD0167E0220F331F441F551F6A95D1F769
:20662000281B390B4A0B5B0B281B390B4A0B5B0B281B390B4A0B5B0B8E2D6AEA76E00DE73B
:2066400010E0EE240E94331E80932907D0932707C093280790E88FEFF6018083892F0E94A5
:20666000B13080E00E94712ADF91CF911F910F91EF90DF90CF900895CF93DF93EC0181E070
:206680000E948F2A0E941B308CE0EAEAF6E0DF011D928A95E9F78B818093AA06898580931E
:2066A000AC0688858093AD068D8181508093AE068B81883251F48D81813039F4888599858D
:2066C000429719F4898184FF03C084E08093AF06898184FF06C081E08093B0061092B10682
:2066E00005C01092B00680E88093B1068091D205813011F08FEF01C080E48093B2068CE0D7
:206700000E94B13080E00E948F2ADF91CF910895CF93DF93EC0181E00E948F2A0E941B3064
:206720008981282F24FF02C080E30DC08B81883249F48D81813031F4888599854A9711F4EB
:2067400080E901C080E122FD88608093AA0688818093AB068091D205813011F080EE01C04E
:206760008EEF8093AC061092AD0684E00E94B13080E00E948F2ADF91CF910895CF93DF939F
:20678000EC010197029720F08EE40E94B82F1AC081E00E94712A0E941B30219729F48AEA22
:2067A00096E06BE974E004C08AEA96E06BE175E040E850E00E94AA3A80E80E94B13080E043
:2067C0000E94712ADF91CF9108950F931F93CF93DF93EC01162FCA010E9491031092D50538
:2067E00000E00E94DE2F982F8091D505882389F49883090F011D0E94A003115011F0219681
:20680000F0CF0E94DE2F982F8091D505882309F490138FEFDF91CF911F910F910895CF9370
:20682000DF93EC0182EB9BE20E94910303C008B604FC38C08299FBCF88E08AB988E18AB924
:20684000CE0164E04BED5EE00E94E533C82FDD27C7FDD0958FED90E00E949103D7FD17C004
:206860009091AA06892F8257843020F48091AB06882369F04091AC065091AD06892F609168
:20688000AB060E944A2503C008B604FC0BC0829BFBCFD7FF09C08091D30591E08927809347
:2068A000D30502C0CFEFDFEFCE01DF91CF9108951F93182F81E40E94B82F8AEA96E0612F15
:2068C0004BED5EE00E94E53387FF09C089EC90E00E94A8038EE40E94B82F80E00EC089EC69
:2068E00090E00E94A80381E40E94B82F5E9BFECF82EB90E00E94910381E01F91089583E003
:206900000E945834882341F01092AD068AEA96E00E94AB220E946C3008951F93182F0E9449
:206920005834882391F0112319F460E071E002C0612F70E08AEA96E00E944A2287FF03C0EA
